{"abi":[{"type":"constructor","inputs":[{"name":"mToken_","type":"address","internalType":"address"},{"name":"swapFacility_","type":"address","internalType":"address"}],"stateMutability":"nonpayable"},{"type":"function","name":"ASSET_CAP_MANAGER_ROLE","inputs":[],"outputs":[{"name":"","type":"bytes32","internalType":"bytes32"}],"stateMutability":"view"},{"type":"function","name":"CANCEL_AUTHORIZATION_TYPEHASH","inputs":[],"outputs":[{"name":"","type":"bytes32","internalType":"bytes32"}],"stateMutability":"view"},{"type":"function","name":"DEFAULT_ADMIN_ROLE","inputs":[],"outputs":[{"name":"","type":"bytes32","internalType":"bytes32"}],"stateMutability":"view"},{"type":"function","name":"DOMAIN_SEPARATOR","inputs":[],"outputs":[{"name":"","type":"bytes32","internalType":"bytes32"}],"stateMutability":"view"},{"type":"function","name":"FREEZE_MANAGER_ROLE","inputs":[],"outputs":[{"name":"","type":"bytes32","internalType":"bytes32"}],"stateMutability":"view"},{"type":"function","name":"M_DECIMALS","inputs":[],"outputs":[{"name":"","type":"uint8","internalType":"uint8"}],"stateMutability":"view"},{"type":"function","name":"PAUSER_ROLE","inputs":[],"outputs":[{"name":"","type":"bytes32","internalType":"bytes32"}],"stateMutability":"view"},{"type":"function","name":"PERMIT_TYPEHASH","inputs":[],"outputs":[{"name":"","type":"bytes32","internalType":"bytes32"}],"stateMutability":"view"},{"type":"function","name":"RECEIVE_WITH_AUTHORIZATION_TYPEHASH","inputs":[],"outputs":[{"name":"","type":"bytes32","internalType":"bytes32"}],"stateMutability":"view"},{"type":"function","name":"TRANSFER_WITH_AUTHORIZATION_TYPEHASH","inputs":[],"outputs":[{"name":"","type":"bytes32","internalType":"bytes32"}],"stateMutability":"view"},{"type":"function","name":"YIELD_RECIPIENT_MANAGER_ROLE","inputs":[],"outputs":[{"name":"","type":"bytes32","internalType":"bytes32"}],"stateMutability":"view"},{"type":"function","name":"allowance","inputs":[{"name":"account","type":"address","internalType":"address"},{"name":"spender","type":"address","internalType":"address"}],"outputs":[{"name":"","type":"uint256","internalType":"uint256"}],"stateMutability":"view"},{"type":"function","name":"approve","inputs":[{"name":"spender_","type":"address","internalType":"address"},{"name":"amount_","type":"uint256","internalType":"uint256"}],"outputs":[{"name":"","type":"bool","internalType":"bool"}],"stateMutability":"nonpayable"},{"type":"function","name":"assetBalanceOf","inputs":[{"name":"asset","type":"address","internalType":"address"}],"outputs":[{"name":"","type":"uint256","internalType":"uint256"}],"stateMutability":"view"},{"type":"function","name":"assetCap","inputs":[{"name":"asset","type":"address","internalType":"address"}],"outputs":[{"name":"","type":"uint256","internalType":"uint256"}],"stateMutability":"view"},{"type":"function","name":"assetDecimals","inputs":[{"name":"asset","type":"address","internalType":"address"}],"outputs":[{"name":"","type":"uint8","internalType":"uint8"}],"stateMutability":"view"},{"type":"function","name":"authorizationState","inputs":[{"name":"authorizer","type":"address","internalType":"address"},{"name":"nonce","type":"bytes32","internalType":"bytes32"}],"outputs":[{"name":"","type":"bool","internalType":"bool"}],"stateMutability":"view"},{"type":"function","name":"balanceOf","inputs":[{"name":"account","type":"address","internalType":"address"}],"outputs":[{"name":"","type":"uint256","internalType":"uint256"}],"stateMutability":"view"},{"type":"function","name":"cancelAuthorization","inputs":[{"name":"authorizer_","type":"address","internalType":"address"},{"name":"nonce_","type":"bytes32","internalType":"bytes32"},{"name":"r_","type":"bytes32","internalType":"bytes32"},{"name":"vs_","type":"bytes32","internalType":"bytes32"}],"outputs":[],"stateMutability":"nonpayable"},{"type":"function","name":"cancelAuthorization","inputs":[{"name":"authorizer_","type":"address","internalType":"address"},{"name":"nonce_","type":"bytes32","internalType":"bytes32"},{"name":"v_","type":"uint8","internalType":"uint8"},{"name":"r_","type":"bytes32","internalType":"bytes32"},{"name":"s_","type":"bytes32","internalType":"bytes32"}],"outputs":[],"stateMutability":"nonpayable"},{"type":"function","name":"cancelAuthorization","inputs":[{"name":"authorizer_","type":"address","internalType":"address"},{"name":"nonce_","type":"bytes32","internalType":"bytes32"},{"name":"signature_","type":"bytes","internalType":"bytes"}],"outputs":[],"stateMutability":"nonpayable"},{"type":"function","name":"claimYield","inputs":[],"outputs":[{"name":"","type":"uint256","internalType":"uint256"}],"stateMutability":"nonpayable"},{"type":"function","name":"currentIndex","inputs":[],"outputs":[{"name":"","type":"uint128","internalType":"uint128"}],"stateMutability":"view"},{"type":"function","name":"decimals","inputs":[],"outputs":[{"name":"","type":"uint8","internalType":"uint8"}],"stateMutability":"view"},{"type":"function","name":"disableEarning","inputs":[],"outputs":[],"stateMutability":"nonpayable"},{"type":"function","name":"eip712Domain","inputs":[],"outputs":[{"name":"fields_","type":"bytes1","internalType":"bytes1"},{"name":"name_","type":"string","internalType":"string"},{"name":"version_","type":"string","internalType":"string"},{"name":"chainId_","type":"uint256","internalType":"uint256"},{"name":"verifyingContract_","type":"address","internalType":"address"},{"name":"salt_","type":"bytes32","internalType":"bytes32"},{"name":"extensions_","type":"uint256[]","internalType":"uint256[]"}],"stateMutability":"view"},{"type":"function","name":"enableEarning","inputs":[],"outputs":[],"stateMutability":"nonpayable"},{"type":"function","name":"freeze","inputs":[{"name":"account","type":"address","internalType":"address"}],"outputs":[],"stateMutability":"nonpayable"},{"type":"function","name":"freezeAccounts","inputs":[{"name":"accounts","type":"address[]","internalType":"address[]"}],"outputs":[],"stateMutability":"nonpayable"},{"type":"function","name":"getRoleAdmin","inputs":[{"name":"role","type":"bytes32","internalType":"bytes32"}],"outputs":[{"name":"","type":"bytes32","internalType":"bytes32"}],"stateMutability":"view"},{"type":"function","name":"grantRole","inputs":[{"name":"role","type":"bytes32","internalType":"bytes32"},{"name":"account","type":"address","internalType":"address"}],"outputs":[],"stateMutability":"nonpayable"},{"type":"function","name":"hasRole","inputs":[{"name":"role","type":"bytes32","internalType":"bytes32"},{"name":"account","type":"address","internalType":"address"}],"outputs":[{"name":"","type":"bool","internalType":"bool"}],"stateMutability":"view"},{"type":"function","name":"initialize","inputs":[{"name":"name","type":"string","internalType":"string"},{"name":"symbol","type":"string","internalType":"string"},{"name":"yieldRecipient_","type":"address","internalType":"address"},{"name":"admin","type":"address","internalType":"address"},{"name":"assetCapManager","type":"address","internalType":"address"},{"name":"freezeManager","type":"address","internalType":"address"},{"name":"pauser","type":"address","internalType":"address"},{"name":"yieldRecipientManager","type":"address","internalType":"address"}],"outputs":[],"stateMutability":"nonpayable"},{"type":"function","name":"initialize","inputs":[{"name":"name","type":"string","internalType":"string"},{"name":"symbol","type":"string","internalType":"string"},{"name":"yieldRecipient_","type":"address","internalType":"address"},{"name":"admin","type":"address","internalType":"address"},{"name":"freezeManager","type":"address","internalType":"address"},{"name":"yieldRecipientManager","type":"address","internalType":"address"},{"name":"pauser","type":"address","internalType":"address"}],"outputs":[],"stateMutability":"nonpayable"},{"type":"function","name":"isAllowedAsset","inputs":[{"name":"asset","type":"address","internalType":"address"}],"outputs":[{"name":"","type":"bool","internalType":"bool"}],"stateMutability":"view"},{"type":"function","name":"isAllowedToReplaceAssetWithM","inputs":[{"name":"asset","type":"address","internalType":"address"},{"name":"amount","type":"uint256","internalType":"uint256"}],"outputs":[{"name":"","type":"bool","internalType":"bool"}],"stateMutability":"view"},{"type":"function","name":"isAllowedToUnwrap","inputs":[{"name":"amount","type":"uint256","internalType":"uint256"}],"outputs":[{"name":"","type":"bool","internalType":"bool"}],"stateMutability":"view"},{"type":"function","name":"isAllowedToWrap","inputs":[{"name":"asset","type":"address","internalType":"address"},{"name":"amount","type":"uint256","internalType":"uint256"}],"outputs":[{"name":"","type":"bool","internalType":"bool"}],"stateMutability":"view"},{"type":"function","name":"isEarningEnabled","inputs":[],"outputs":[{"name":"","type":"bool","internalType":"bool"}],"stateMutability":"view"},{"type":"function","name":"isFrozen","inputs":[{"name":"account","type":"address","internalType":"address"}],"outputs":[{"name":"","type":"bool","internalType":"bool"}],"stateMutability":"view"},{"type":"function","name":"mToken","inputs":[],"outputs":[{"name":"","type":"address","internalType":"address"}],"stateMutability":"view"},{"type":"function","name":"name","inputs":[],"outputs":[{"name":"","type":"string","internalType":"string"}],"stateMutability":"view"},{"type":"function","name":"nonces","inputs":[{"name":"account","type":"address","internalType":"address"}],"outputs":[{"name":"","type":"uint256","internalType":"uint256"}],"stateMutability":"view"},{"type":"function","name":"pause","inputs":[],"outputs":[],"stateMutability":"nonpayable"},{"type":"function","name":"paused","inputs":[],"outputs":[{"name":"","type":"bool","internalType":"bool"}],"stateMutability":"view"},{"type":"function","name":"permit","inputs":[{"name":"owner_","type":"address","internalType":"address"},{"name":"spender_","type":"address","internalType":"address"},{"name":"value_","type":"uint256","internalType":"uint256"},{"name":"deadline_","type":"uint256","internalType":"uint256"},{"name":"signature_","type":"bytes","internalType":"bytes"}],"outputs":[],"stateMutability":"nonpayable"},{"type":"function","name":"permit","inputs":[{"name":"owner_","type":"address","internalType":"address"},{"name":"spender_","type":"address","internalType":"address"},{"name":"value_","type":"uint256","internalType":"uint256"},{"name":"deadline_","type":"uint256","internalType":"uint256"},{"name":"v_","type":"uint8","internalType":"uint8"},{"name":"r_","type":"bytes32","internalType":"bytes32"},{"name":"s_","type":"bytes32","internalType":"bytes32"}],"outputs":[],"stateMutability":"nonpayable"},{"type":"function","name":"receiveWithAuthorization","inputs":[{"name":"from_","type":"address","internalType":"address"},{"name":"to_","type":"address","internalType":"address"},{"name":"value_","type":"uint256","internalType":"uint256"},{"name":"validAfter_","type":"uint256","internalType":"uint256"},{"name":"validBefore_","type":"uint256","internalType":"uint256"},{"name":"nonce_","type":"bytes32","internalType":"bytes32"},{"name":"signature_","type":"bytes","internalType":"bytes"}],"outputs":[],"stateMutability":"nonpayable"},{"type":"function","name":"receiveWithAuthorization","inputs":[{"name":"from_","type":"address","internalType":"address"},{"name":"to_","type":"address","internalType":"address"},{"name":"value_","type":"uint256","internalType":"uint256"},{"name":"validAfter_","type":"uint256","internalType":"uint256"},{"name":"validBefore_","type":"uint256","internalType":"uint256"},{"name":"nonce_","type":"bytes32","internalType":"bytes32"},{"name":"r_","type":"bytes32","internalType":"bytes32"},{"name":"vs_","type":"bytes32","internalType":"bytes32"}],"outputs":[],"stateMutability":"nonpayable"},{"type":"function","name":"receiveWithAuthorization","inputs":[{"name":"from_","type":"address","internalType":"address"},{"name":"to_","type":"address","internalType":"address"},{"name":"value_","type":"uint256","internalType":"uint256"},{"name":"validAfter_","type":"uint256","internalType":"uint256"},{"name":"validBefore_","type":"uint256","internalType":"uint256"},{"name":"nonce_","type":"bytes32","internalType":"bytes32"},{"name":"v_","type":"uint8","internalType":"uint8"},{"name":"r_","type":"bytes32","internalType":"bytes32"},{"name":"s_","type":"bytes32","internalType":"bytes32"}],"outputs":[],"stateMutability":"nonpayable"},{"type":"function","name":"renounceRole","inputs":[{"name":"role","type":"bytes32","internalType":"bytes32"},{"name":"callerConfirmation","type":"address","internalType":"address"}],"outputs":[],"stateMutability":"nonpayable"},{"type":"function","name":"replaceAssetWithM","inputs":[{"name":"asset","type":"address","internalType":"address"},{"name":"recipient","type":"address","internalType":"address"},{"name":"amount","type":"uint256","internalType":"uint256"}],"outputs":[],"stateMutability":"nonpayable"},{"type":"function","name":"revokeRole","inputs":[{"name":"role","type":"bytes32","internalType":"bytes32"},{"name":"account","type":"address","internalType":"address"}],"outputs":[],"stateMutability":"nonpayable"},{"type":"function","name":"setAssetCap","inputs":[{"name":"asset","type":"address","internalType":"address"},{"name":"cap","type":"uint256","internalType":"uint256"}],"outputs":[],"stateMutability":"nonpayable"},{"type":"function","name":"setYieldRecipient","inputs":[{"name":"account","type":"address","internalType":"address"}],"outputs":[],"stateMutability":"nonpayable"},{"type":"function","name":"supportsInterface","inputs":[{"name":"interfaceId","type":"bytes4","internalType":"bytes4"}],"outputs":[{"name":"","type":"bool","internalType":"bool"}],"stateMutability":"view"},{"type":"function","name":"swapFacility","inputs":[],"outputs":[{"name":"","type":"address","internalType":"address"}],"stateMutability":"view"},{"type":"function","name":"symbol","inputs":[],"outputs":[{"name":"","type":"string","internalType":"string"}],"stateMutability":"view"},{"type":"function","name":"totalAssets","inputs":[],"outputs":[{"name":"","type":"uint256","internalType":"uint256"}],"stateMutability":"view"},{"type":"function","name":"totalSupply","inputs":[],"outputs":[{"name":"","type":"uint256","internalType":"uint256"}],"stateMutability":"view"},{"type":"function","name":"transfer","inputs":[{"name":"recipient_","type":"address","internalType":"address"},{"name":"amount_","type":"uint256","internalType":"uint256"}],"outputs":[{"name":"","type":"bool","internalType":"bool"}],"stateMutability":"nonpayable"},{"type":"function","name":"transferFrom","inputs":[{"name":"sender_","type":"address","internalType":"address"},{"name":"recipient_","type":"address","internalType":"address"},{"name":"amount_","type":"uint256","internalType":"uint256"}],"outputs":[{"name":"","type":"bool","internalType":"bool"}],"stateMutability":"nonpayable"},{"type":"function","name":"transferWithAuthorization","inputs":[{"name":"from_","type":"address","internalType":"address"},{"name":"to_","type":"address","internalType":"address"},{"name":"value_","type":"uint256","internalType":"uint256"},{"name":"validAfter_","type":"uint256","internalType":"uint256"},{"name":"validBefore_","type":"uint256","internalType":"uint256"},{"name":"nonce_","type":"bytes32","internalType":"bytes32"},{"name":"r_","type":"bytes32","internalType":"bytes32"},{"name":"vs_","type":"bytes32","internalType":"bytes32"}],"outputs":[],"stateMutability":"nonpayable"},{"type":"function","name":"transferWithAuthorization","inputs":[{"name":"from_","type":"address","internalType":"address"},{"name":"to_","type":"address","internalType":"address"},{"name":"value_","type":"uint256","internalType":"uint256"},{"name":"validAfter_","type":"uint256","internalType":"uint256"},{"name":"validBefore_","type":"uint256","internalType":"uint256"},{"name":"nonce_","type":"bytes32","internalType":"bytes32"},{"name":"signature_","type":"bytes","internalType":"bytes"}],"outputs":[],"stateMutability":"nonpayable"},{"type":"function","name":"transferWithAuthorization","inputs":[{"name":"from_","type":"address","internalType":"address"},{"name":"to_","type":"address","internalType":"address"},{"name":"value_","type":"uint256","internalType":"uint256"},{"name":"validAfter_","type":"uint256","internalType":"uint256"},{"name":"validBefore_","type":"uint256","internalType":"uint256"},{"name":"nonce_","type":"bytes32","internalType":"bytes32"},{"name":"v_","type":"uint8","internalType":"uint8"},{"name":"r_","type":"bytes32","internalType":"bytes32"},{"name":"s_","type":"bytes32","internalType":"bytes32"}],"outputs":[],"stateMutability":"nonpayable"},{"type":"function","name":"unfreeze","inputs":[{"name":"account","type":"address","internalType":"address"}],"outputs":[],"stateMutability":"nonpayable"},{"type":"function","name":"unfreezeAccounts","inputs":[{"name":"accounts","type":"address[]","internalType":"address[]"}],"outputs":[],"stateMutability":"nonpayable"},{"type":"function","name":"unpause","inputs":[],"outputs":[],"stateMutability":"nonpayable"},{"type":"function","name":"unwrap","inputs":[{"name":"","type":"address","internalType":"address"},{"name":"amount","type":"uint256","internalType":"uint256"}],"outputs":[],"stateMutability":"nonpayable"},{"type":"function","name":"wrap","inputs":[{"name":"asset","type":"address","internalType":"address"},{"name":"recipient","type":"address","internalType":"address"},{"name":"amount","type":"uint256","internalType":"uint256"}],"outputs":[],"stateMutability":"nonpayable"},{"type":"function","name":"wrap","inputs":[{"name":"recipient","type":"address","internalType":"address"},{"name":"amount","type":"uint256","internalType":"uint256"}],"outputs":[],"stateMutability":"nonpayable"},{"type":"function","name":"yield","inputs":[],"outputs":[{"name":"","type":"uint256","internalType":"uint256"}],"stateMutability":"view"},{"type":"function","name":"yieldRecipient","inputs":[],"outputs":[{"name":"","type":"address","internalType":"address"}],"stateMutability":"view"},{"type":"event","name":"Approval","inputs":[{"name":"account","type":"address","indexed":true,"internalType":"address"},{"name":"spender","type":"address","indexed":true,"internalType":"address"},{"name":"amount","type":"uint256","indexed":false,"internalType":"uint256"}],"anonymous":false},{"type":"event","name":"AssetCapSet","inputs":[{"name":"asset","type":"address","indexed":true,"internalType":"address"},{"name":"cap","type":"uint256","indexed":false,"internalType":"uint256"}],"anonymous":false},{"type":"event","name":"AssetReplacedWithM","inputs":[{"name":"asset","type":"address","indexed":true,"internalType":"address"},{"name":"assetAmount","type":"uint256","indexed":false,"internalType":"uint256"},{"name":"recipient","type":"address","indexed":true,"internalType":"address"},{"name":"mAmount","type":"uint256","indexed":false,"internalType":"uint256"}],"anonymous":false},{"type":"event","name":"AuthorizationCanceled","inputs":[{"name":"authorizer","type":"address","indexed":true,"internalType":"address"},{"name":"nonce","type":"bytes32","indexed":true,"internalType":"bytes32"}],"anonymous":false},{"type":"event","name":"AuthorizationUsed","inputs":[{"name":"authorizer","type":"address","indexed":true,"internalType":"address"},{"name":"nonce","type":"bytes32","indexed":true,"internalType":"bytes32"}],"anonymous":false},{"type":"event","name":"EIP712DomainChanged","inputs":[],"anonymous":false},{"type":"event","name":"EarningDisabled","inputs":[{"name":"index","type":"uint128","indexed":false,"internalType":"uint128"}],"anonymous":false},{"type":"event","name":"EarningEnabled","inputs":[{"name":"index","type":"uint128","indexed":false,"internalType":"uint128"}],"anonymous":false},{"type":"event","name":"Frozen","inputs":[{"name":"account","type":"address","indexed":true,"internalType":"address"},{"name":"timestamp","type":"uint256","indexed":false,"internalType":"uint256"}],"anonymous":false},{"type":"event","name":"Initialized","inputs":[{"name":"version","type":"uint64","indexed":false,"internalType":"uint64"}],"anonymous":false},{"type":"event","name":"Paused","inputs":[{"name":"account","type":"address","indexed":false,"internalType":"address"}],"anonymous":false},{"type":"event","name":"RoleAdminChanged","inputs":[{"name":"role","type":"bytes32","indexed":true,"internalType":"bytes32"},{"name":"previousAdminRole","type":"bytes32","indexed":true,"internalType":"bytes32"},{"name":"newAdminRole","type":"bytes32","indexed":true,"internalType":"bytes32"}],"anonymous":false},{"type":"event","name":"RoleGranted","inputs":[{"name":"role","type":"bytes32","indexed":true,"internalType":"bytes32"},{"name":"account","type":"address","indexed":true,"internalType":"address"},{"name":"sender","type":"address","indexed":true,"internalType":"address"}],"anonymous":false},{"type":"event","name":"RoleRevoked","inputs":[{"name":"role","type":"bytes32","indexed":true,"internalType":"bytes32"},{"name":"account","type":"address","indexed":true,"internalType":"address"},{"name":"sender","type":"address","indexed":true,"internalType":"address"}],"anonymous":false},{"type":"event","name":"Transfer","inputs":[{"name":"sender","type":"address","indexed":true,"internalType":"address"},{"name":"recipient","type":"address","indexed":true,"internalType":"address"},{"name":"amount","type":"uint256","indexed":false,"internalType":"uint256"}],"anonymous":false},{"type":"event","name":"Unfrozen","inputs":[{"name":"account","type":"address","indexed":true,"internalType":"address"},{"name":"timestamp","type":"uint256","indexed":false,"internalType":"uint256"}],"anonymous":false},{"type":"event","name":"Unpaused","inputs":[{"name":"account","type":"address","indexed":false,"internalType":"address"}],"anonymous":false},{"type":"event","name":"YieldClaimed","inputs":[{"name":"yield","type":"uint256","indexed":false,"internalType":"uint256"}],"anonymous":false},{"type":"event","name":"YieldRecipientSet","inputs":[{"name":"yieldRecipient","type":"address","indexed":true,"internalType":"address"}],"anonymous":false},{"type":"error","name":"AccessControlBadConfirmation","inputs":[]},{"type":"error","name":"AccessControlUnauthorizedAccount","inputs":[{"name":"account","type":"address","internalType":"address"},{"name":"neededRole","type":"bytes32","internalType":"bytes32"}]},{"type":"error","name":"AccountFrozen","inputs":[{"name":"account","type":"address","internalType":"address"}]},{"type":"error","name":"AccountNotFrozen","inputs":[{"name":"account","type":"address","internalType":"address"}]},{"type":"error","name":"AssetCapReached","inputs":[{"name":"asset","type":"address","internalType":"address"}]},{"type":"error","name":"AuthorizationAlreadyUsed","inputs":[{"name":"authorizer","type":"address","internalType":"address"},{"name":"nonce","type":"bytes32","internalType":"bytes32"}]},{"type":"error","name":"AuthorizationExpired","inputs":[{"name":"timestamp","type":"uint256","internalType":"uint256"},{"name":"validBefore","type":"uint256","internalType":"uint256"}]},{"type":"error","name":"AuthorizationNotYetValid","inputs":[{"name":"timestamp","type":"uint256","internalType":"uint256"},{"name":"validAfter","type":"uint256","internalType":"uint256"}]},{"type":"error","name":"CallerMustBePayee","inputs":[{"name":"caller","type":"address","internalType":"address"},{"name":"payee","type":"address","internalType":"address"}]},{"type":"error","name":"EarningIsDisabled","inputs":[]},{"type":"error","name":"EarningIsEnabled","inputs":[]},{"type":"error","name":"EnforcedPause","inputs":[]},{"type":"error","name":"ExpectedPause","inputs":[]},{"type":"error","name":"InsufficientAllowance","inputs":[{"name":"spender","type":"address","internalType":"address"},{"name":"allowance","type":"uint256","internalType":"uint256"},{"name":"needed","type":"uint256","internalType":"uint256"}]},{"type":"error","name":"InsufficientAmount","inputs":[{"name":"amount","type":"uint256","internalType":"uint256"}]},{"type":"error","name":"InsufficientAssetBacking","inputs":[{"name":"asset","type":"address","internalType":"address"},{"name":"amount","type":"uint256","internalType":"uint256"},{"name":"assetAvailable","type":"uint256","internalType":"uint256"}]},{"type":"error","name":"InsufficientAssetReceived","inputs":[{"name":"asset","type":"address","internalType":"address"},{"name":"amountExpected","type":"uint256","internalType":"uint256"},{"name":"amountReceived","type":"uint256","internalType":"uint256"}]},{"type":"error","name":"InsufficientBalance","inputs":[{"name":"account","type":"address","internalType":"address"},{"name":"balance","type":"uint256","internalType":"uint256"},{"name":"amount","type":"uint256","internalType":"uint256"}]},{"type":"error","name":"InsufficientMBacking","inputs":[{"name":"amount","type":"uint256","internalType":"uint256"},{"name":"mAvailable","type":"uint256","internalType":"uint256"}]},{"type":"error","name":"InvalidAccountNonce","inputs":[{"name":"nonce","type":"uint256","internalType":"uint256"},{"name":"expectedNonce","type":"uint256","internalType":"uint256"}]},{"type":"error","name":"InvalidAsset","inputs":[{"name":"asset","type":"address","internalType":"address"}]},{"type":"error","name":"InvalidInitialization","inputs":[]},{"type":"error","name":"InvalidRecipient","inputs":[{"name":"recipient","type":"address","internalType":"address"}]},{"type":"error","name":"InvalidSignature","inputs":[]},{"type":"error","name":"InvalidSignatureLength","inputs":[]},{"type":"error","name":"InvalidSignatureS","inputs":[]},{"type":"error","name":"InvalidSignatureV","inputs":[]},{"type":"error","name":"InvalidUInt240","inputs":[]},{"type":"error","name":"NotInitializing","inputs":[]},{"type":"error","name":"NotSwapFacility","inputs":[]},{"type":"error","name":"SafeERC20FailedOperation","inputs":[{"name":"token","type":"address","internalType":"address"}]},{"type":"error","name":"SignatureExpired","inputs":[{"name":"deadline","type":"uint256","internalType":"uint256"},{"name":"timestamp","type":"uint256","internalType":"uint256"}]},{"type":"error","name":"SignerMismatch","inputs":[]},{"type":"error","name":"ZeroAdmin","inputs":[]},{"type":"error","name":"ZeroAssetCapManager","inputs":[]},{"type":"error","name":"ZeroFreezeManager","inputs":[]},{"type":"error","name":"ZeroMToken","inputs":[]},{"type":"error","name":"ZeroPauser","inputs":[]},{"type":"error","name":"ZeroSwapFacility","inputs":[]},{"type":"error","name":"ZeroYieldRecipient","inputs":[]},{"type":"error","name":"ZeroYieldRecipientManager","inputs":[]}],"bytecode":{"object":"0x60c03461013157601f614c5838819003918201601f19168301916001600160401b0383118484101761013557808492604094855283398101031261013157610052602061004b83610149565b9201610149565b9061005b61015d565b60808190526001600160a01b0316156101225760a08190526001600160a01b0316156101135761008961015d565b604051614a3e908161021a823960805181818161068d01528181610d4501528181610db301528181610ec30152818161114601528181611cfb0152818161278c015281816130df01528181613174015281816132f1015281816135120152614047015260a051818181610e010152818161101001528181611bc40152818161210e01526126700152f35b636880ffc960e11b5f5260045ffd5b63b01d5e2b60e01b5f5260045ffd5b5f80fd5b634e487b7160e01b5f52604160045260245ffd5b51906001600160a01b038216820361013157565b7ff0c57e16840df040f15088dc2f81fe391c3923bec73e23a9662efc9c229c6a005460ff8160401c1661020a576002600160401b03196001600160401b038216016101a55750565b6001600160401b0319166001600160401b039081177ff0c57e16840df040f15088dc2f81fe391c3923bec73e23a9662efc9c229c6a00556040519081527fc7f505b2f371ae2175ee4913f4499e1f2633a7b5936321eed1cdaeb6115181d290602090a1565b63f92ee8a960e01b5f5260045ffdfe6080806040526004361015610012575f80fd5b5f905f3560e01c90816301e1d11414612bbc5750806301ffc9a714612b6757806306b3efd614612b4457806306fdde0314612b1a578063095ea7b314612af45780631143a46914612ab7578063170e207014612a7c57806318160ddd14612a5357806323b872dd146129a1578063248a9ca31461298357806326987b6014612958578063285939841461293e5780632f2ff15d1461290d57806330adf81f146128d35780633123428714612899578063313ce5671461286d5780633644e5151461285357806336568abe1461280f57806339f47693146126515780633f4ba83a146125d3578063406cf229146125b15780634259dff91461257757806345c8b1a61461254e57806345cf012d146124bc5780634aa504d314612495578063532992c5146124625780635a049a701461241f5780635c975abb146123f157806362355638146120fc57806363f15649146120c257806364c2a2651461202f57806370a0823114612003578063737a3ddd14611fe85780637ecebe0014611f915780637f2eecc314611f575780638456cb5914611ee657806384b0196e14611e0e57806388a47d4d14611bb357806388b7ab6314611b89578063890afeff14611b425780638d1fdf2f14611b1e57806391d1485414611ac957806394f5a66e146113e657806395d89b41146112ec57806398abb5ea146112a85780639fd5a6cf1461124c578063a08cb48b14611221578063a0cc6a68146111e7578063a217fddf146111cd578063a8afc01f146110eb578063a9059cbb146110b9578063aad1202914611071578063ace150a51461103f578063ae06b7e414610ffa578063b7b7289914610fa8578063bf376c7a14610de2578063c3b6f93914610d9d578063c537bed014610d15578063c9144ddb14610cf0578063c91f0c531461070f578063c967891a14610632578063cc4c5b64146105fd578063cf092995146105cc578063d505accf14610574578063d547741f14610539578063d9169487146104fe578063dd62ed3e146104b6578063e366da2c14610487578063e3ee160e14610456578063e58398361461040b578063e63ab1e9146103d0578063e94a01021461037d5763ef55bec614610341575f80fd5b3461037a5761037761037261035536612e60565b9161036c8486888a8c989e988e9a9e9d9b9d614076565b85614000565b6141dc565b80f35b80fd5b503461037a57604036600319011261037a5760ff604060209261039e612be2565b6001600160a01b031681525f805160206148898339815191528452818120602435825284522054604051911615158152f35b503461037a578060031936011261037a5760206040517f65d7a28e3265b37a6474929f336521b332c1681b933f6cb9f3376673440d862a8152f35b503461037a57602036600319011261037a5760209060ff906040906001600160a01b03610436612be2565b1681525f8051602061492983398151915284522054166040519015158152f35b503461037a5761037761048261046b36612e60565b9161036c8486888a8c989e988e9a9e9d9b9d61435c565b6143ce565b503461037a57602036600319011261037a5760206104ab6104a6612be2565b613566565b60ff60405191168152f35b503461037a57604036600319011261037a576104d0612be2565b6104e16104db612bf8565b91612ebe565b9060018060a01b03165f52602052602060405f2054604051908152f35b503461037a578060031936011261037a5760206040517f158b0a9edf7a828aad02f63cd515c68ef2f50ba807396f6d12842833a15974298152f35b503461037a57604036600319011261037a57610570600435610559612bf8565b9061056b610566826130ac565b613733565b613d6b565b5080f35b503461037a5760e036600319011261037a5761058e612be2565b610596612bf8565b906084359160ff831683036105c8576103779260c435926105c260a43593606435906044359084614290565b90614000565b8380fd5b503461037a576103776104826105e136612dac565b6105f7828486888a8c989c9d979d9b999b61435c565b836140e8565b503461037a578060031936011261037a575f805160206148a9833981519152546040516001600160a01b039091168152602090f35b503461037a578060031936011261037a5761064b6134f7565b610700577f5098de6eb11dbd1127cf4dcd5e960e3944d48a7570b9b1939cff715cb35c5a18602061067a6130ca565b6001600160801b0360405191168152a1807f00000000000000000000000000000000000000000000000000000000000000006001600160a01b0316803b156106fd578180916004604051809481936328db903f60e21b83525af180156106f2576106e15750f35b816106eb91612d2c565b61037a5780f35b6040513d84823e3d90fd5b50fd5b630f484e6d60e31b8152600490fd5b503461037a5760e036600319011261037a576004356001600160401b038111610cec57610740903690600401612d68565b6024356001600160401b038111610ce85761075f903690600401612d68565b610767612c0e565b61076f612c24565b90610778612c3a565b92610781612c50565b9361078a612c66565b915f805160206149e983398151915254966001600160401b0360ff8960401c1615981680159081610ce0575b6001149081610cd6575b159081610ccd575b50610cbe57876107d66134b2565b610c8e575b6107e3614635565b6001600160a01b03871615610c7f576001600160a01b03861615610c7057610809614635565b610811614635565b610819614635565b610821614635565b610829614635565b8051906001600160401b038211610c5c5781906108535f8051602061496983398151915254612f85565b601f8111610be2575b50602090601f8311600114610b66578b92610b5b575b50508160011b915f199060031b1c1916175f80516020614969833981519152555b467f103ce0bed7138196cdb0d79ef04042681b16e7a2c58d74b78443c813042ea100556108be613cdd565b7f103ce0bed7138196cdb0d79ef04042681b16e7a2c58d74b78443c813042ea10155600660ff195f805160206149498339815191525416175f80516020614949833981519152558051906001600160401b038211610b4757819061092f5f805160206148e983398151915254612f85565b601f8111610acd575b50602090601f8311600114610a51578a92610a46575b50508160011b915f199060031b1c1916175f805160206148e9833981519152555b610977614635565b6001600160a01b03811615610a375761098f906138d7565b50610998614635565b6001600160a01b03811615610a2857916109c26109c7926109bc6109cd9695613990565b50613e62565b613a49565b50613ae0565b506109d55780f35b60ff60401b195f805160206149e983398151915254165f805160206149e9833981519152557fc7f505b2f371ae2175ee4913f4499e1f2633a7b5936321eed1cdaeb6115181d2602060405160018152a180f35b63042d717b60e01b8652600486fd5b636cbbd1d360e01b8752600487fd5b015190505f8061094e565b5f805160206148e98339815191528b52818b209250601f1984168b5b818110610ab55750908460019594939210610a9d575b505050811b015f805160206148e98339815191525561096f565b01515f1960f88460031b161c191690555f8080610a83565b92936020600181928786015181550195019301610a6d565b5f805160206148e98339815191528b529091507f35f9f04fad87e1ca84403b2d88a131772d2fa872029e0542adfffd075ac9353b601f840160051c81019160208510610b3d575b90601f859493920160051c01905b818110610b2f5750610938565b8b8155849350600101610b22565b9091508190610b14565b634e487b7160e01b89526041600452602489fd5b015190505f80610872565b5f805160206149698339815191528c52818c209250601f1984168c5b818110610bca5750908460019594939210610bb2575b505050811b015f8051602061496983398151915255610893565b01515f1960f88460031b161c191690555f8080610b98565b92936020600181928786015181550195019301610b82565b5f805160206149698339815191528c529091507f965caeb9ae9b5911a7c1cc4dd8f2483deac0bff61c9b0615befcb27d395865a8601f840160051c81019160208510610c52575b90601f859493920160051c01905b818110610c44575061085c565b8c8155849350600101610c37565b9091508190610c29565b634e487b7160e01b8a52604160045260248afd5b633944ed8760e11b8952600489fd5b6309d50edf60e01b8952600489fd5b600160401b60ff60401b195f805160206149e98339815191525416175f805160206149e9833981519152556107db565b63f92ee8a960e01b8952600489fd5b9050155f6107c8565b303b1591506107c0565b8991506107b6565b8280fd5b5080fd5b503461037a578060031936011261037a576020610d0b6134f7565b6040519015158152f35b503461037a57602036600319011261037a576020906001600160a01b03610d3a612be2565b166001600160a01b037f000000000000000000000000000000000000000000000000000000000000000016811491908215610d7c575b50506040519015158152f35b6040925081525f805160206148c98339815191528352205415155f80610d70565b503461037a578060031936011261037a576040517f00000000000000000000000000000000000000000000000000000000000000006001600160a01b03168152602090f35b503461037a57604036600319011261037a57610dfc612be2565b6024357f00000000000000000000000000000000000000000000000000000000000000006001600160a01b03163303610f995760405163d737d0c760e01b8152602081600481335afa908115610f28578491610f6a575b50610e5d83614484565b610e66826144df565b610e6e61460e565b60ff610e7982612ef6565b5416610f4f575060ff610e8b83612ef6565b5416610f33576040516323b872dd60e01b81523360048201523060248201526044810182905291602083606481876001600160a01b037f0000000000000000000000000000000000000000000000000000000000000000165af1928315610f285761037793610efb575b50613e07565b610f1c9060203d602011610f21575b610f148183612d2c565b8101906134df565b610ef5565b503d610f0a565b6040513d86823e3d90fd5b6327951b3f60e11b83526001600160a01b038216600452602483fd5b6327951b3f60e11b84526001600160a01b0316600452602483fd5b610f8c915060203d602011610f92575b610f848183612d2c565b81019061324f565b5f610e53565b503d610f7a565b630aff86d760e21b8352600483fd5b503461037a57606036600319011261037a57610fc2612be2565b602435604435916001600160401b0383116105c857610ff5610feb610377943690600401612d68565b6105f78484613ee0565b613f98565b503461037a578060031936011261037a576040517f00000000000000000000000000000000000000000000000000000000000000006001600160a01b03168152602090f35b503461037a5761037761048261105436612e11565b9061106b838587898b8d999d9e989e9c9a9c61435c565b84613f39565b503461037a5761108036612ca0565b611088613655565b825b818110611095578380f35b806110b36110ae6110a96001948688613074565b613098565b614217565b0161108a565b503461037a57604036600319011261037a576110e06110d6612be2565b60243590336137f3565b602060405160018152f35b50346111ba575f3660031901126111ba576111046134f7565b156111be577fee580fdb4da10ea17aa673e6f5c8c2370b4166d6a94bc88900e5a96d0589e3ce60206111346130ca565b6001600160801b0360405191168152a17f00000000000000000000000000000000000000000000000000000000000000006001600160a01b0316803b156111ba575f809160246040518094819363204e66f960e21b83523060048401525af180156111af576111a1575080f35b6111ad91505f90612d2c565b005b6040513d5f823e3d90fd5b5f80fd5b63b019ea3560e01b5f5260045ffd5b346111ba575f3660031901126111ba5760206040515f8152f35b346111ba575f3660031901126111ba5760206040517f7c7c6cdb67a18743f49ec6fa9b35f50d52ed05cbed4cc592e13b44501c1a22678152f35b346111ba576111ad61037261123536612e11565b9061106b838587898b8d999d9e989e9c9a9c614076565b346111ba5760a03660031901126111ba57611265612be2565b61126d612bf8565b608435916001600160401b0383116111ba576112a26112936111ad943690600401612d68565b92606435906044359084614290565b906140e8565b346111ba5760203660031901126111ba576001600160a01b036112c9612be2565b165f525f805160206148c9833981519152602052602060405f2054604051908152f35b346111ba575f3660031901126111ba576040515f5f805160206148e98339815191525461131881612f85565b80845290600181169081156113c25750600114611358575b6113548361134081850382612d2c565b604051918291602083526020830190612c7c565b0390f35b5f805160206148e98339815191525f9081527f35f9f04fad87e1ca84403b2d88a131772d2fa872029e0542adfffd075ac9353b939250905b8082106113a857509091508101602001611340611330565b919260018160209254838588010152019101909291611390565b60ff191660208086019190915291151560051b840190910191506113409050611330565b346111ba576101003660031901126111ba576004356001600160401b0381116111ba57611417903690600401612d68565b6024356001600160401b0381116111ba57611436903690600401612d68565b61143e612c0e565b611446612c24565b9061144f612c3a565b90611458612c50565b611460612c66565b9160e4359160018060a01b038316968784036111ba575f805160206149e983398151915254986001600160401b0360ff8b60401c16159a1680159081611ac1575b6001149081611ab7575b159081611aae575b50611a5457896114c16134b2565b611a7e575b5f805160206149e983398151915254986001600160401b0360ff8b60401c16159a1680159081611a76575b6001149081611a6c575b159081611a63575b50611a5457896115116134b2565b611a24575b61151e614635565b6001600160a01b03881615611a1557611535614635565b15611a06576001600160a01b038816156119f757611551614635565b611559614635565b611561614635565b611569614635565b611571614635565b8051906001600160401b0382116118e057819061159b5f8051602061496983398151915254612f85565b601f811161197d575b50602090601f83116001146118ff575f926118f4575b50508160011b915f199060031b1c1916175f80516020614969833981519152555b467f103ce0bed7138196cdb0d79ef04042681b16e7a2c58d74b78443c813042ea10055611606613cdd565b7f103ce0bed7138196cdb0d79ef04042681b16e7a2c58d74b78443c813042ea10155600660ff195f805160206149498339815191525416175f80516020614949833981519152558051906001600160401b0382116118e05781906116775f805160206148e983398151915254612f85565b601f8111611866575b50602090601f83116001146117e8575f926117dd575b50508160011b915f199060031b1c1916175f805160206148e9833981519152555b6116bf614635565b6001600160a01b038116156117ce576116d7906138d7565b506116e0614635565b6001600160a01b038316156117bf5761170c946109c26109c7926109bc61170696613990565b50613b99565b5061176a575b61171857005b60ff60401b195f805160206149e983398151915254165f805160206149e9833981519152557fc7f505b2f371ae2175ee4913f4499e1f2633a7b5936321eed1cdaeb6115181d2602060405160018152a1005b60ff60401b195f805160206149e983398151915254165f805160206149e9833981519152557fc7f505b2f371ae2175ee4913f4499e1f2633a7b5936321eed1cdaeb6115181d2602060405160018152a1611712565b63042d717b60e01b5f5260045ffd5b636cbbd1d360e01b5f5260045ffd5b015190508a80611696565b5f805160206148e98339815191525f9081528281209350601f198516905b81811061184e5750908460019594939210611836575b505050811b015f805160206148e9833981519152556116b7565b01515f1960f88460031b161c191690558a808061181c565b92936020600181928786015181550195019301611806565b5f805160206148e98339815191525f529091507f35f9f04fad87e1ca84403b2d88a131772d2fa872029e0542adfffd075ac9353b601f840160051c810191602085106118d6575b90601f859493920160051c01905b8181106118c85750611680565b5f81558493506001016118bb565b90915081906118ad565b634e487b7160e01b5f52604160045260245ffd5b015190508b806115ba565b5f805160206149698339815191525f9081528281209350601f198516905b818110611965575090846001959493921061194d575b505050811b015f80516020614969833981519152556115db565b01515f1960f88460031b161c191690558b8080611933565b9293602060018192878601518155019501930161191d565b5f805160206149698339815191525f529091507f965caeb9ae9b5911a7c1cc4dd8f2483deac0bff61c9b0615befcb27d395865a8601f840160051c810191602085106119ed575b90601f859493920160051c01905b8181106119df57506115a4565b5f81558493506001016119d2565b90915081906119c4565b633944ed8760e11b5f5260045ffd5b6309d50edf60e01b5f5260045ffd5b638de68f0b60e01b5f5260045ffd5b600160401b60ff60401b195f805160206149e98339815191525416175f805160206149e983398151915255611516565b63f92ee8a960e01b5f5260045ffd5b9050158c611503565b303b1591506114fb565b8b91506114f1565b600160401b60ff60401b195f805160206149e98339815191525416175f805160206149e9833981519152556114c6565b9050158b6114b3565b303b1591506114ab565b8b91506114a1565b346111ba5760403660031901126111ba57611ae2612bf8565b6004355f525f8051602061498983398151915260205260405f209060018060a01b03165f52602052602060ff60405f2054166040519015158152f35b346111ba5760203660031901126111ba576111ad611b3a612be2565b6110ae613655565b346111ba5760403660031901126111ba576020611b5d612be2565b6024358015159182611b755750506040519015158152f35b611b80919250612f53565b10158280610d70565b346111ba576111ad610372611b9d36612dac565b6105f7828486888a8c989c9d979d9b999b614076565b346111ba57611bc136612cf2565b907f00000000000000000000000000000000000000000000000000000000000000006001600160a01b03163303611dff57611bfa61460e565b611c0383614019565b611c0c81614484565b611c15826144df565b611c2782611c2285613566565b614805565b92611c31846144df565b611c3a81612f53565b808511611ddd57506001600160a01b03165f8181525f805160206148c98339815191526020526040902060010180549193916001600160f01b0386811691811691909103908111611dc95781546001600160f01b0319166001600160f01b03919091161790555f805160206149c983398151915254611cba90829061400c565b5f805160206149c9833981519152556040516323b872dd60e01b815233600482015230602482015260448101829052916020836064815f6001600160a01b037f0000000000000000000000000000000000000000000000000000000000000000165af19182156111af577f8a4ed1b1befccbe11caf6bc1f1f5eeb2c12b4dd806c6014c110bcd756118e8ec93604093611dac575b50825163a9059cbb60e01b60208201526001600160a01b038316602482015260448101879052611d9590611d8f81606481015b03601f198101835282612d2c565b8661471b565b825195865260208601526001600160a01b031693a3005b611dc49060203d602011610f2157610f148183612d2c565b611d4e565b634e487b7160e01b5f52601160045260245ffd5b8482637c67815160e01b5f5260018060a01b031660045260245260445260645ffd5b630aff86d760e21b5f5260045ffd5b346111ba575f3660031901126111ba57611e8a6020604051611e308282612d2c565b5f81525f36813760405191611e4f83611e4881612fbd565b0384612d2c565b611e98604051611e60604082612d2c565b60018152603160f81b83820152604051958695600f60f81b875260e08588015260e0870190612c7c565b908582036040870152612c7c565b4660608501523060808501525f60a085015283810360c08501528180845192838152019301915f5b828110611ecf57505050500390f35b835185528695509381019392810192600101611ec0565b346111ba575f3660031901126111ba57611efe6136c4565b611f0661460e565b600160ff195f805160206149a98339815191525416175f805160206149a9833981519152557f62e78cea01bee320cd4e420270b5ea74000d11b0c9f74754ebdbfc544b05a2586020604051338152a1005b346111ba575f3660031901126111ba5760206040517fd099cc98ef71107a616c4f0f941f04c322d8e254fe26b3c6668db87aae413de88152f35b346111ba5760203660031901126111ba576001600160a01b03611fb2612be2565b165f527f1b21ba3f0a2135d61c468900b54084f04af8111bce0f8bbb6ab8c46d11afbd00602052602060405f2054604051908152f35b346111ba575f3660031901126111ba57602060405160068152f35b346111ba5760203660031901126111ba576020612026612021612be2565b612f1b565b54604051908152f35b346111ba5760403660031901126111ba57612048612be2565b335f9081527f44bd628b83c90e1ac588893312a03f9119ef166b161366b2fe43c23424d17e8d602052604090205460ff161561208b576111ad906024359061334e565b63e2517d3f60e01b5f52336004527fa56d2bdf254c8533e707144802f9ebe3f93e4c7e3dbd92488f75e6c593e0c2af60245260445ffd5b346111ba575f3660031901126111ba5760206040517f109b88c1c8d528799ca6f455418979dd2a552493f14553ce44443b23f7df8b358152f35b346111ba5761210a36612cf2565b91907f00000000000000000000000000000000000000000000000000000000000000006001600160a01b03163303611dff5760405163d737d0c760e01b8152602081600481335afa9081156111af575f916123d2575b5061216a83614019565b61217382614484565b61217c846144df565b61218684846132db565b156123b45761219361460e565b60ff61219e82612ef6565b5416612394575060ff6121b082612ef6565b5416612394576040516370a0823160e01b81523060048201526001600160a01b0383169290602081602481875afa9081156111af575f91612362575b506040516323b872dd60e01b602082015233602482015230604482015260648101869052612227906122218160848101611d81565b8561471b565b6040516370a0823160e01b815230600482015290602082602481885afa80156111af575f9061232e575b61225b925061400c565b84811061231457508361227061227592613566565b614798565b9161227f836144df565b6001600160f01b038411612305575f9081525f805160206148c98339815191526020526040902060010180546001600160f01b0394851690851601938411611dc9576111ad9360018060f01b031661ffff60f01b8254161790556122f1825f805160206149c9833981519152546132ce565b5f805160206149c983398151915255613e07565b632a49c10d60e01b5f5260045ffd5b84846383257a2960e01b5f5260045260245260445260645ffd5b506020823d60201161235a575b8161234860209383612d2c565b810103126111ba5761225b9151612251565b3d915061233b565b90506020813d60201161238c575b8161237d60209383612d2c565b810103126111ba5751856121ec565b3d9150612370565b6327951b3f60e11b5f9081526001600160a01b0391909116600452602490fd5b633a7848b160e11b5f9081526001600160a01b038416600452602490fd5b6123eb915060203d602011610f9257610f848183612d2c565b84612160565b346111ba575f3660031901126111ba57602060ff5f805160206149a983398151915254166040519015158152f35b346111ba5760a03660031901126111ba57612438612be2565b6024356044359160ff831683036111ba57610ff56111ad93608435906064359061036c8686613ee0565b346111ba5760803660031901126111ba576111ad61247e612be2565b60243590610ff560643560443561106b8585613ee0565b346111ba5760403660031901126111ba576020610d0b6124b3612be2565b602435906132db565b346111ba5760203660031901126111ba576124d5612be2565b335f9081527f2d49eff8835029d75ada43915f796d809ede52fdd349d69b8dd02ff64e202452602052604090205460ff1615612517576111ad906109bc61326e565b63e2517d3f60e01b5f52336004527f4a5e9eb1ba56d04185ff75ebf0f4f42a3d7c88c35b4a90fa278437e0c9bdceca60245260445ffd5b346111ba5760203660031901126111ba576111ad61256a612be2565b612572613655565b613779565b346111ba575f3660031901126111ba5760206040517f4a5e9eb1ba56d04185ff75ebf0f4f42a3d7c88c35b4a90fa278437e0c9bdceca8152f35b346111ba575f3660031901126111ba5760206125cb61326e565b604051908152f35b346111ba575f3660031901126111ba576125eb6136c4565b5f805160206149a98339815191525460ff8116156126425760ff19165f805160206149a9833981519152557f5db9ee0a495bf2e6ff9c91a7834c1ba4fdd244a5e8aa4e537bd38aeae4b073aa6020604051338152a1005b638dfc202b60e01b5f5260045ffd5b346111ba5760403660031901126111ba5761266a612be2565b506024357f00000000000000000000000000000000000000000000000000000000000000006001600160a01b03163303611dff5760405163d737d0c760e01b8152602081600481335afa9081156111af575f916127f0575b506126cc826144df565b6126d461362a565b8083116127da57506126e461460e565b60ff6126ef82612ef6565b54166123945761278760208361270581336144a8565b61270e33612f1b565b818154039055805f8051602061490983398151915254035f80516020614909833981519152555f6040518281527fddf252ad1be2c89b69c2b068fc378daa952ba7f163c4a11628f55a4df523b3ef843392a360405163a9059cbb60e01b8152336004820152602481019190915291829081906044820190565b03815f7f00000000000000000000000000000000000000000000000000000000000000006001600160a01b03165af180156111af576127c257005b6111ad9060203d602011610f2157610f148183612d2c565b82633dbc0a1b60e01b5f5260045260245260445ffd5b612809915060203d602011610f9257610f848183612d2c565b826126c2565b346111ba5760403660031901126111ba57612828612bf8565b336001600160a01b03821603612844576111ad90600435613d6b565b63334bd91960e11b5f5260045ffd5b346111ba575f3660031901126111ba5760206125cb6131fa565b346111ba575f3660031901126111ba57602060ff5f805160206149498339815191525416604051908152f35b346111ba575f3660031901126111ba5760206040517fa56d2bdf254c8533e707144802f9ebe3f93e4c7e3dbd92488f75e6c593e0c2af8152f35b346111ba575f3660031901126111ba5760206040517f6e71edae12b1b97f4d1f60370fef10105fa2faae0126114a169c64845d6126c98152f35b346111ba5760403660031901126111ba576111ad60043561292c612bf8565b90612939610566826130ac565b613c52565b346111ba575f3660031901126111ba5760206125cb613159565b346111ba575f3660031901126111ba5760206129726130ca565b6001600160801b0360405191168152f35b346111ba5760203660031901126111ba5760206125cb6004356130ac565b346111ba576129af36612cf2565b6001600160a01b0383165f9081527fcbbe23efb65c1eaba394256c463812c20abdb5376e247eba1d0e1e92054da100602090815260408083203384529091529020549290919060018401612a08575b6110e093506137f3565b828410612a38576110e093612a1c82612ebe565b60018060a01b0333165f526020528360405f20910390556129fe565b8284630c95cf2760e11b5f523360045260245260445260645ffd5b346111ba575f3660031901126111ba5760205f8051602061490983398151915254604051908152f35b346111ba57612a8a36612ca0565b612a92613655565b5f5b818110612a9d57005b80612ab16125726110a96001948688613074565b01612a94565b346111ba5760203660031901126111ba5760206004358015159081612ae2575b506040519015158152f35b9050612aec61362a565b101582612ad7565b346111ba5760403660031901126111ba576110e0612b10612be2565b6024359033613595565b346111ba575f3660031901126111ba5761135460405161134081612b3d81612fbd565b0382612d2c565b346111ba5760203660031901126111ba5760206125cb612b62612be2565b612f53565b346111ba5760203660031901126111ba5760043563ffffffff60e01b81168091036111ba57602090637965db0b60e01b8114908115612bab57506040519015158152f35b6301ffc9a760e01b14905082612ad7565b346111ba575f3660031901126111ba576020905f805160206149c9833981519152548152f35b600435906001600160a01b03821682036111ba57565b602435906001600160a01b03821682036111ba57565b604435906001600160a01b03821682036111ba57565b606435906001600160a01b03821682036111ba57565b608435906001600160a01b03821682036111ba57565b60a435906001600160a01b03821682036111ba57565b60c435906001600160a01b03821682036111ba57565b805180835260209291819084018484015e5f828201840152601f01601f1916010190565b9060206003198301126111ba576004356001600160401b0381116111ba57826023820112156111ba578060040135926001600160401b0384116111ba5760248460051b830101116111ba576024019190565b60609060031901126111ba576004356001600160a01b03811681036111ba57906024356001600160a01b03811681036111ba579060443590565b90601f801991011681019081106001600160401b038211176118e057604052565b6001600160401b0381116118e057601f01601f191660200190565b81601f820112156111ba57602081359101612d8282612d4d565b92612d906040519485612d2c565b828452828201116111ba57815f92602092838601378301015290565b60e06003198201126111ba576004356001600160a01b03811681036111ba57916024356001600160a01b03811681036111ba579160443591606435916084359160a4359160c435906001600160401b0382116111ba57612e0e91600401612d68565b90565b6101009060031901126111ba576004356001600160a01b03811681036111ba57906024356001600160a01b03811681036111ba579060443590606435906084359060a4359060c4359060e43590565b6101209060031901126111ba576004356001600160a01b03811681036111ba57906024356001600160a01b03811681036111ba579060443590606435906084359060a4359060c43560ff811681036111ba579060e435906101043590565b6001600160a01b03165f9081527fcbbe23efb65c1eaba394256c463812c20abdb5376e247eba1d0e1e92054da1006020526040902090565b6001600160a01b03165f9081525f805160206149298339815191526020526040902090565b6001600160a01b03165f9081527fee2f6fc7e2e5879b17985791e0d12536cba689bda43c77b8911497248f4af1026020526040902090565b6001600160a01b03165f9081525f805160206148c983398151915260205260409020600101546001600160f01b031690565b90600182811c92168015612fb3575b6020831014612f9f57565b634e487b7160e01b5f52602260045260245ffd5b91607f1691612f94565b5f80516020614969833981519152545f9291612fd882612f85565b80825291600181169081156130585750600114612ff3575050565b5f805160206149698339815191525f9081529293509091907f965caeb9ae9b5911a7c1cc4dd8f2483deac0bff61c9b0615befcb27d395865a85b83831061303e575060209250010190565b60018160209294939454838587010152019101919061302d565b9050602093945060ff929192191683830152151560051b010190565b91908110156130845760051b0190565b634e487b7160e01b5f52603260045260245ffd5b356001600160a01b03811681036111ba5790565b5f525f80516020614989833981519152602052600160405f20015490565b604051630134c3db60e51b81526020816004817f00000000000000000000000000000000000000000000000000000000000000006001600160a01b03165afa9081156111af575f9161311a575090565b90506020813d602011613151575b8161313560209383612d2c565b810103126111ba57516001600160801b03811681036111ba5790565b3d9150613128565b6040516370a0823160e01b81523060048201526020816024817f00000000000000000000000000000000000000000000000000000000000000006001600160a01b03165afa9081156111af575f916131c8575b506131b561362a565b90818111156131c2570390565b50505f90565b90506020813d6020116131f2575b816131e360209383612d2c565b810103126111ba57515f6131ac565b3d91506131d6565b7f103ce0bed7138196cdb0d79ef04042681b16e7a2c58d74b78443c813042ea100544603613247577f103ce0bed7138196cdb0d79ef04042681b16e7a2c58d74b78443c813042ea1015490565b612e0e613cdd565b908160209103126111ba57516001600160a01b03811681036111ba5790565b613276613159565b80156132c9577fd1c22369a95f91ae16576036bba6372736ba109f257ad94dccb89e141762e2656020604051838152a15f805160206148a983398151915254612e0e9082906001600160a01b0316613e07565b505f90565b91908201809211611dc957565b9080156131c2576001600160a01b0382811691907f000000000000000000000000000000000000000000000000000000000000000016821461334657613341915f525f805160206148c983398151915260205261333c60405f205493612f53565b6132ce565b111590565b505050600190565b61335781614019565b6001600160a01b03165f8181525f805160206148c9833981519152602052604090205490919081146134ae57815f525f805160206148c983398151915260205260ff600160405f20015460f01c16156133f1575b60207f70b5c8a095bb680742b58d79cdc18b0477268ac25a3a49141caf92ee01af524791835f525f805160206148c983398151915282528060405f2055604051908152a2565b60405163313ce56760e01b8152602081600481865afa9081156111af575f91613452575b505f8381525f805160206148c983398151915260205260409020600101805460ff60f01b191660f09290921b60ff60f01b169190911790556133ab565b90506020813d6020116134a6575b8161346d60209383612d2c565b810103126111ba575160ff811681036111ba577f70b5c8a095bb680742b58d79cdc18b0477268ac25a3a49141caf92ee01af5247613415565b3d9150613460565b5050565b60016001600160401b03195f805160206149e98339815191525416175f805160206149e983398151915255565b908160209103126111ba575180151581036111ba5790565b6040516384af270f60e01b81523060048201526020816024817f00000000000000000000000000000000000000000000000000000000000000006001600160a01b03165afa9081156111af575f9161354d575090565b612e0e915060203d602011610f2157610f148183612d2c565b6001600160a01b03165f9081525f805160206148c9833981519152602052604090206001015460f01c60ff1690565b919060ff6135a284612ef6565b541661360c5760ff6135b382612ef6565b54166123945760207f8c5be1e5ebec7d5bd14f71427d1e84f3dd0314c0f7b2291e5b200ac8c7c3b925916135e685612ebe565b6001600160a01b039182165f8181529184526040918290208690559051948552941692a3565b6327951b3f60e11b5f9081526001600160a01b038416600452602490fd5b5f80516020614909833981519152545f805160206149c98339815191525490818111156131c2570390565b335f9081527f86aeab049e4c9249169ebb1ad21ce4f543d20ab83b761f8465d8c9c7aea26614602052604090205460ff161561368d57565b63e2517d3f60e01b5f52336004527f109b88c1c8d528799ca6f455418979dd2a552493f14553ce44443b23f7df8b3560245260445ffd5b335f9081527f75442b0a96088b5456bc4ed01394c96a4feec0f883c9494257d76b96ab1c9b6b602052604090205460ff16156136fc57565b63e2517d3f60e01b5f52336004527f65d7a28e3265b37a6474929f336521b332c1681b933f6cb9f3376673440d862a60245260445ffd5b5f8181525f805160206149898339815191526020908152604080832033845290915290205460ff16156137635750565b63e2517d3f60e01b5f523360045260245260445ffd5b6001600160a01b03165f8181525f80516020614929833981519152602052604090205460ff16156137f057805f525f8051602061492983398151915260205260405f2060ff1981541690557f07d647ad688e085159820c1d8d030e5765cdc5274d4ee4065c6066b388a2ef596020604051428152a2565b50565b906137fd81614484565b61380561460e565b60ff61381033612ef6565b54166138c45760ff61382183612ef6565b54166138a35760ff61383282612ef6565b5416612394576040518381526001600160a01b0382811691908416907fddf252ad1be2c89b69c2b068fc378daa952ba7f163c4a11628f55a4df523b3ef90602090a3821561389e5761388b8261202185613896956144a8565b838154039055612f1b565b908154019055565b505050565b506327951b3f60e11b5f9081526001600160a01b0391909116600452602490fd5b6327951b3f60e11b5f523360045260245ffd5b6001600160a01b0381165f9081527f86aeab049e4c9249169ebb1ad21ce4f543d20ab83b761f8465d8c9c7aea26614602052604090205460ff166132c9576001600160a01b03165f8181527f86aeab049e4c9249169ebb1ad21ce4f543d20ab83b761f8465d8c9c7aea2661460205260408120805460ff191660011790553391907f109b88c1c8d528799ca6f455418979dd2a552493f14553ce44443b23f7df8b35905f805160206148698339815191529080a4600190565b6001600160a01b0381165f9081527f75442b0a96088b5456bc4ed01394c96a4feec0f883c9494257d76b96ab1c9b6b602052604090205460ff166132c9576001600160a01b03165f8181527f75442b0a96088b5456bc4ed01394c96a4feec0f883c9494257d76b96ab1c9b6b60205260408120805460ff191660011790553391907f65d7a28e3265b37a6474929f336521b332c1681b933f6cb9f3376673440d862a905f805160206148698339815191529080a4600190565b6001600160a01b0381165f9081527fb7db2dd08fcb62d0c9e08c51941cae53c267786a0b75803fb7960902fc8ef97d602052604090205460ff166132c9576001600160a01b03165f8181527fb7db2dd08fcb62d0c9e08c51941cae53c267786a0b75803fb7960902fc8ef97d60205260408120805460ff191660011790553391905f805160206148698339815191528180a4600190565b6001600160a01b0381165f9081527f2d49eff8835029d75ada43915f796d809ede52fdd349d69b8dd02ff64e202452602052604090205460ff166132c9576001600160a01b03165f8181527f2d49eff8835029d75ada43915f796d809ede52fdd349d69b8dd02ff64e20245260205260408120805460ff191660011790553391907f4a5e9eb1ba56d04185ff75ebf0f4f42a3d7c88c35b4a90fa278437e0c9bdceca905f805160206148698339815191529080a4600190565b6001600160a01b0381165f9081527f44bd628b83c90e1ac588893312a03f9119ef166b161366b2fe43c23424d17e8d602052604090205460ff166132c9576001600160a01b03165f8181527f44bd628b83c90e1ac588893312a03f9119ef166b161366b2fe43c23424d17e8d60205260408120805460ff191660011790553391907fa56d2bdf254c8533e707144802f9ebe3f93e4c7e3dbd92488f75e6c593e0c2af905f805160206148698339815191529080a4600190565b5f8181525f80516020614989833981519152602090815260408083206001600160a01b038616845290915290205460ff166131c2575f8181525f80516020614989833981519152602090815260408083206001600160a01b0395909516808452949091528120805460ff19166001179055339291905f805160206148698339815191529080a4600190565b604051613ced81612b3d81612fbd565b6020815191012060405160208101917f8b73c3c69bb8fe3d512ecc4cf759cc79239f7b179b0ffacaa9a75d522b39400f835260408201527fc89efdaa54c0f20c7adf612882df0950f5a951637e0307cdcb4c672f298b8bc660608201524660808201523060a082015260a08152613d6560c082612d2c565b51902090565b5f8181525f80516020614989833981519152602090815260408083206001600160a01b038616845290915290205460ff16156131c2575f8181525f80516020614989833981519152602090815260408083206001600160a01b0395909516808452949091528120805460ff19169055339291907ff6391f5c32d9c69d2a47ea670b442974b53935d1edc7fd64eb21e047a839171b9080a4600190565b7fddf252ad1be2c89b69c2b068fc378daa952ba7f163c4a11628f55a4df523b3ef60205f92613e3581612f1b565b8054860190555f805160206149098339815191528054860190556040519485526001600160a01b031693a3565b6001600160a01b03168015613ed1575f805160206148a9833981519152546001600160a01b03811682146134ae576001600160a01b03191681175f805160206148a9833981519152557f77f12a3c9f87d4602fe59bb8d2b68c7b516e0cacba414a53e74ea75d435dc18d5f80a2565b63177f500360e21b5f5260045ffd5b612e0e916040519060208201927f158b0a9edf7a828aad02f63cd515c68ef2f50ba807396f6d12842833a1597429845260018060a01b03166040830152606082015260608152613f31608082612d2c565b5190206144fa565b92613f5a926001600160ff1b03821692909160ff90811c601b01169061467b565b6006821015613f8457613f7b9282613f7d57613f769250614660565b61452d565b565b505061452d565b634e487b7160e01b5f52602160045260245ffd5b613fa282826145c3565b6001600160a01b03165f8181525f80516020614889833981519152602090815260408083208584529091528120805460ff191660011790557f1cdd46ff242716cdaa72d159d339a485b3438398348d68f09d7c8c0a59353d819080a3565b9391613f5a939161467b565b91908203918211611dc957565b6001600160a01b031680158015614044575b6140325750565b6337bce3c560e11b5f5260045260245ffd5b507f00000000000000000000000000000000000000000000000000000000000000006001600160a01b0316811461402b565b939092612e0e95926040519460208601967fd099cc98ef71107a616c4f0f941f04c322d8e254fe26b3c6668db87aae413de8885260018060a01b0316604087015260018060a01b03166060860152608085015260a084015260c083015260e082015260e08152613f3161010082612d2c565b916140f38183614835565b6006821015613f8457816141d55761410c915084614660565b925b6006841015613f845783156141cf575f92611d8161415285946040519283916020830195630b135d3f60e11b87526024840152604060448401526064830190612c7c565b51915afa3d156141c8573d61416681612d4d565b906141746040519283612d2c565b81523d5f602083013e5b816141ba575b81614198575b506137f057613f7b9061452d565b90506020818051810103126111ba5760200151630b135d3f60e11b145f61418a565b905060208151101590614184565b606061417e565b50505050565b509261410e565b6001600160a01b038216969594939291903388900361420057613f7b9697506143ce565b87631c5939f360e01b5f523360045260245260445ffd5b6001600160a01b03165f8181525f80516020614929833981519152602052604090205460ff166137f057805f525f8051602061492983398151915260205260405f20600160ff198254161790557f68e0d8c112165d0949ce87205b719ed7d98c7401866c34a159f7c67c6f5620e76020604051428152a2565b9392938442116143455793846142ab8484612e0e9798613595565b60018060a01b031692835f527f1b21ba3f0a2135d61c468900b54084f04af8111bce0f8bbb6ab8c46d11afbd0060205260405f20908154916001830190556040519360208501957f6e71edae12b1b97f4d1f60370fef10105fa2faae0126114a169c64845d6126c98752604086015260018060a01b03166060850152608084015260a083015260c082015260c08152613f3160e082612d2c565b84630f88f04960e41b5f526004524260245260445ffd5b939092612e0e95926040519460208601967f7c7c6cdb67a18743f49ec6fa9b35f50d52ed05cbed4cc592e13b44501c1a2267885260018060a01b0316604087015260018060a01b03166060860152608085015260a084015260c083015260e082015260e08152613f3161010082612d2c565b9193959490928042111561446e57508542101561445757613f7b9495506143f581836145c3565b6001600160a01b0382165f8181525f80516020614889833981519152602090815260408083208584529091528120805460ff191660011790557f98de503528ee59b575ef0c0a2576a82497bfc029a5685b209e9ec333479b10a59080a36137f3565b856359fe699f60e11b5f524260045260245260445ffd5b6324c7fcd160e11b5f524260045260245260445ffd5b6001600160a01b031680156144965750565b630bc2c5df60e11b5f5260045260245ffd5b6144b181612f1b565b54908282106144bf57505050565b63db42144d60e01b5f5260018060a01b031660045260245260445260645ffd5b80156144e85750565b6377b8dde360e01b5f5260045260245ffd5b6145026131fa565b9060405190602082019261190160f01b84526022830152604282015260428152613d65606282612d2c565b906006821015613f845781156145bf5750600181146145b057600281146145a1576003811461459257600481146145835760051461457457638baa579f60e01b5f5260045ffd5b6310c74b0360e01b5f5260045ffd5b63ff551e8960e01b5f5260045ffd5b6317e97eb760e31b5f5260045ffd5b634be6321b60e01b5f5260045ffd5b638baa579f60e01b5f5260045ffd5b9050565b60018060a01b0316805f525f8051602061488983398151915260205260405f20825f5260205260ff60405f2054166145f9575050565b63d309466d60e01b5f5260045260245260445ffd5b60ff5f805160206149a9833981519152541661462657565b63d93c066560e01b5f5260045ffd5b60ff5f805160206149e98339815191525460401c161561465157565b631afcd79f60e31b5f5260045ffd5b6001600160a01b03908116911603614676575f90565b600590565b907f7fffffffffffffffffffffffffffffff5d576e7357a4501ddfe92f46681b20a084116147105760ff1690601b82141580614705575b6146fa576020935f93608093604051938452868401526040830152606082015282805260015afa156111af575f516001600160a01b0316806146f657506001905f90565b5f91565b505050506004905f90565b50601c8214156146b2565b505050506003905f90565b905f602091828151910182855af1156111af575f513d61476a57506001600160a01b0381163b155b61474a5750565b635274afe760e01b5f9081526001600160a01b0391909116600452602490fd5b60011415614743565b9060ff8091169116039060ff8211611dc957565b60ff16604d8111611dc957600a0a90565b60ff81166006811461480057600610156147de576147ba60066147bf92614773565b614787565b9081156147ca570490565b634e487b7160e01b5f52601260045260245ffd5b6147ba6147ec916006614773565b90818102918183041490151715611dc95790565b505090565b60ff8116806006146148005760061115614827576147ba6147bf916006614773565b6147ba60066147ec92614773565b90604181510361485f5761485b91602082015190606060408401519301515f1a9061467b565b9091565b50506002905f9056fe2f8788117e7eff1d82e926ec794901d17c78024a50270940304540a733656f0d1116a1d33aa5fb91b2652b3b0fdb63704173742d6dbecaf4256ebe33a4888600ee2f6fc7e2e5879b17985791e0d12536cba689bda43c77b8911497248f4af1014717d46f2e033163981fa31651301a35281b6b08316965d315fd1577bad94b00cbbe23efb65c1eaba394256c463812c20abdb5376e247eba1d0e1e92054da102ee2f6fc7e2e5879b17985791e0d12536cba689bda43c77b8911497248f4af1002fd5767309dce890c526ace85d7fe164825199d7dcd99c33588befc51b32ce00cbbe23efb65c1eaba394256c463812c20abdb5376e247eba1d0e1e92054da101103ce0bed7138196cdb0d79ef04042681b16e7a2c58d74b78443c813042ea10202dd7bc7dec4dceedda775e58dd541e08a116c6c53815c0bd028192f7b626800cd5ed15c6e187e77e9aee88184c21f4f2182ab5827cb3b7e07fbedcd63f033004717d46f2e033163981fa31651301a35281b6b08316965d315fd1577bad94b01f0c57e16840df040f15088dc2f81fe391c3923bec73e23a9662efc9c229c6a00a2646970667358221220a8c8ad0fe9a1860e61e7452d3e534e3c095f8b1c8d098dd219623e2f1a8882a164736f6c634300081a0033","linkReferences":{}},"methodIdentifiers":{"ASSET_CAP_MANAGER_ROLE()":"31234287","CANCEL_AUTHORIZATION_TYPEHASH()":"d9169487","DEFAULT_ADMIN_ROLE()":"a217fddf","DOMAIN_SEPARATOR()":"3644e515","FREEZE_MANAGER_ROLE()":"63f15649","M_DECIMALS()":"737a3ddd","PAUSER_ROLE()":"e63ab1e9","PERMIT_TYPEHASH()":"30adf81f","RECEIVE_WITH_AUTHORIZATION_TYPEHASH()":"7f2eecc3","TRANSFER_WITH_AUTHORIZATION_TYPEHASH()":"a0cc6a68","YIELD_RECIPIENT_MANAGER_ROLE()":"4259dff9","allowance(address,address)":"dd62ed3e","approve(address,uint256)":"095ea7b3","assetBalanceOf(address)":"06b3efd6","assetCap(address)":"98abb5ea","assetDecimals(address)":"e366da2c","authorizationState(address,bytes32)":"e94a0102","balanceOf(address)":"70a08231","cancelAuthorization(address,bytes32,bytes)":"b7b72899","cancelAuthorization(address,bytes32,bytes32,bytes32)":"532992c5","cancelAuthorization(address,bytes32,uint8,bytes32,bytes32)":"5a049a70","claimYield()":"406cf229","currentIndex()":"26987b60","decimals()":"313ce567","disableEarning()":"a8afc01f","eip712Domain()":"84b0196e","enableEarning()":"c967891a","freeze(address)":"8d1fdf2f","freezeAccounts(address[])":"aad12029","getRoleAdmin(bytes32)":"248a9ca3","grantRole(bytes32,address)":"2f2ff15d","hasRole(bytes32,address)":"91d14854","initialize(string,string,address,address,address,address,address)":"c91f0c53","initialize(string,string,address,address,address,address,address,address)":"94f5a66e","isAllowedAsset(address)":"c537bed0","isAllowedToReplaceAssetWithM(address,uint256)":"890afeff","isAllowedToUnwrap(uint256)":"1143a469","isAllowedToWrap(address,uint256)":"4aa504d3","isEarningEnabled()":"c9144ddb","isFrozen(address)":"e5839836","mToken()":"c3b6f939","name()":"06fdde03","nonces(address)":"7ecebe00","pause()":"8456cb59","paused()":"5c975abb","permit(address,address,uint256,uint256,bytes)":"9fd5a6cf","permit(address,address,uint256,uint256,uint8,bytes32,bytes32)":"d505accf","receiveWithAuthorization(address,address,uint256,uint256,uint256,bytes32,bytes)":"88b7ab63","receiveWithAuthorization(address,address,uint256,uint256,uint256,bytes32,bytes32,bytes32)":"a08cb48b","receiveWithAuthorization(address,address,uint256,uint256,uint256,bytes32,uint8,bytes32,bytes32)":"ef55bec6","renounceRole(bytes32,address)":"36568abe","replaceAssetWithM(address,address,uint256)":"88a47d4d","revokeRole(bytes32,address)":"d547741f","setAssetCap(address,uint256)":"64c2a265","setYieldRecipient(address)":"45cf012d","supportsInterface(bytes4)":"01ffc9a7","swapFacility()":"ae06b7e4","symbol()":"95d89b41","totalAssets()":"01e1d114","totalSupply()":"18160ddd","transfer(address,uint256)":"a9059cbb","transferFrom(address,address,uint256)":"23b872dd","transferWithAuthorization(address,address,uint256,uint256,uint256,bytes32,bytes)":"cf092995","transferWithAuthorization(address,address,uint256,uint256,uint256,bytes32,bytes32,bytes32)":"ace150a5","transferWithAuthorization(address,address,uint256,uint256,uint256,bytes32,uint8,bytes32,bytes32)":"e3ee160e","unfreeze(address)":"45c8b1a6","unfreezeAccounts(address[])":"170e2070","unpause()":"3f4ba83a","unwrap(address,uint256)":"39f47693","wrap(address,address,uint256)":"62355638","wrap(address,uint256)":"bf376c7a","yield()":"28593984","yieldRecipient()":"cc4c5b64"},"id":60}